:100000000C9446000C9458000C9458000C94580022
:100010000C9458000C9458000C9458000C94580000
:100020000C9458000C9458000C9472000C945800D6
:100030000C9458000C9458000C9458000C945800E0
:100040000C9458000C9458000C9458000C945800D0
:100050000C9458000C9458000C9458000C945800C0
:100060000C9458000C9458000C9458000C945800B0
:100070000C9458000C9458000C9458000C945800A0
:100080000C9458000C9458000C94580011241FBE76
:10009000CFEFD0E1DEBFCDBF21E0A0E0B1E001C0F5
:1000A0001D92A730B207E1F70E947D000C94CE00AC
:1000B0000C9400008FEF8ABB80EF87BB98EF94BB56
:1000C00081BB80EC82B910926400089587B7806488
:1000D00087BF85B5846085BD089582BB8295807F8A
:1000E00088BB08951F920F920FB60F92112414BC73
:1000F0000F900FBE0F901F9018950E945A000E94FB
:10010000660078948EEF80930501109206018CEFC3
:100110008093040184E68093030144B550E020916C
:10012000050130E0809102012417350714F08E7F1D
:1001300001C081608093020144B550E02091060126
:1001400030E0809102012417350714F08D7F01C043
:1001500082608093020144B550E02091040130E0B8
:10016000809102012417350714F08B7F01C0846051
:100170008093020144B550E02091030130E080916A
:1001800002012417350714F0877F01C0886080932F
:100190000201809102010E946D00BFCFF894FFCF51
:00000001FF
